{
  "contractName": "GladiatorCharacter",
  "abi": [
    {
      "inputs": [
        {
          "internalType": "address",
          "name": "_VRFCoordinator",
          "type": "address"
        },
        {
          "internalType": "address",
          "name": "_LinkToken",
          "type": "address"
        },
        {
          "internalType": "bytes32",
          "name": "_keyHash",
          "type": "bytes32"
        }
      ],
      "stateMutability": "nonpayable",
      "type": "constructor"
    },
    {
      "anonymous": false,
      "inputs": [
        {
          "indexed": true,
          "internalType": "address",
          "name": "owner",
          "type": "address"
        },
        {
          "indexed": true,
          "internalType": "address",
          "name": "approved",
          "type": "address"
        },
        {
          "indexed": true,
          "internalType": "uint256",
          "name": "tokenId",
          "type": "uint256"
        }
      ],
      "name": "Approval",
      "type": "event"
    },
    {
      "anonymous": false,
      "inputs": [
        {
          "indexed": true,
          "internalType": "address",
          "name": "owner",
          "type": "address"
        },
        {
          "indexed": true,
          "internalType": "address",
          "name": "operator",
          "type": "address"
        },
        {
          "indexed": false,
          "internalType": "bool",
          "name": "approved",
          "type": "bool"
        }
      ],
      "name": "ApprovalForAll",
      "type": "event"
    },
    {
      "anonymous": false,
      "inputs": [
        {
          "indexed": true,
          "internalType": "address",
          "name": "from",
          "type": "address"
        },
        {
          "indexed": true,
          "internalType": "address",
          "name": "to",
          "type": "address"
        },
        {
          "indexed": true,
          "internalType": "uint256",
          "name": "tokenId",
          "type": "uint256"
        }
      ],
      "name": "Transfer",
      "type": "event"
    },
    {
      "inputs": [],
      "name": "Linktoken",
      "outputs": [
        {
          "internalType": "address",
          "name": "",
          "type": "address"
        }
      ],
      "stateMutability": "view",
      "type": "function",
      "constant": true
    },
    {
      "inputs": [
        {
          "internalType": "address",
          "name": "to",
          "type": "address"
        },
        {
          "internalType": "uint256",
          "name": "tokenId",
          "type": "uint256"
        }
      ],
      "name": "approve",
      "outputs": [],
      "stateMutability": "nonpayable",
      "type": "function"
    },
    {
      "inputs": [
        {
          "internalType": "address",
          "name": "owner",
          "type": "address"
        }
      ],
      "name": "balanceOf",
      "outputs": [
        {
          "internalType": "uint256",
          "name": "",
          "type": "uint256"
        }
      ],
      "stateMutability": "view",
      "type": "function",
      "constant": true
    },
    {
      "inputs": [],
      "name": "baseURI",
      "outputs": [
        {
          "internalType": "string",
          "name": "",
          "type": "string"
        }
      ],
      "stateMutability": "view",
      "type": "function",
      "constant": true
    },
    {
      "inputs": [
        {
          "internalType": "uint256",
          "name": "",
          "type": "uint256"
        }
      ],
      "name": "characters",
      "outputs": [
        {
          "internalType": "uint256",
          "name": "strength",
          "type": "uint256"
        },
        {
          "internalType": "uint256",
          "name": "speed",
          "type": "uint256"
        },
        {
          "internalType": "uint256",
          "name": "stamina",
          "type": "uint256"
        },
        {
          "internalType": "string",
          "name": "name",
          "type": "string"
        }
      ],
      "stateMutability": "view",
      "type": "function",
      "constant": true
    },
    {
      "inputs": [
        {
          "internalType": "uint256",
          "name": "tokenId",
          "type": "uint256"
        }
      ],
      "name": "getApproved",
      "outputs": [
        {
          "internalType": "address",
          "name": "",
          "type": "address"
        }
      ],
      "stateMutability": "view",
      "type": "function",
      "constant": true
    },
    {
      "inputs": [
        {
          "internalType": "address",
          "name": "owner",
          "type": "address"
        },
        {
          "internalType": "address",
          "name": "operator",
          "type": "address"
        }
      ],
      "name": "isApprovedForAll",
      "outputs": [
        {
          "internalType": "bool",
          "name": "",
          "type": "bool"
        }
      ],
      "stateMutability": "view",
      "type": "function",
      "constant": true
    },
    {
      "inputs": [],
      "name": "keyHash",
      "outputs": [
        {
          "internalType": "bytes32",
          "name": "",
          "type": "bytes32"
        }
      ],
      "stateMutability": "view",
      "type": "function",
      "constant": true
    },
    {
      "inputs": [],
      "name": "name",
      "outputs": [
        {
          "internalType": "string",
          "name": "",
          "type": "string"
        }
      ],
      "stateMutability": "view",
      "type": "function",
      "constant": true
    },
    {
      "inputs": [
        {
          "internalType": "uint256",
          "name": "tokenId",
          "type": "uint256"
        }
      ],
      "name": "ownerOf",
      "outputs": [
        {
          "internalType": "address",
          "name": "",
          "type": "address"
        }
      ],
      "stateMutability": "view",
      "type": "function",
      "constant": true
    },
    {
      "inputs": [],
      "name": "randomResult",
      "outputs": [
        {
          "internalType": "uint256",
          "name": "",
          "type": "uint256"
        }
      ],
      "stateMutability": "view",
      "type": "function",
      "constant": true
    },
    {
      "inputs": [
        {
          "internalType": "bytes32",
          "name": "requestId",
          "type": "bytes32"
        },
        {
          "internalType": "uint256",
          "name": "randomness",
          "type": "uint256"
        }
      ],
      "name": "rawFulfillRandomness",
      "outputs": [],
      "stateMutability": "nonpayable",
      "type": "function"
    },
    {
      "inputs": [
        {
          "internalType": "address",
          "name": "from",
          "type": "address"
        },
        {
          "internalType": "address",
          "name": "to",
          "type": "address"
        },
        {
          "internalType": "uint256",
          "name": "tokenId",
          "type": "uint256"
        }
      ],
      "name": "safeTransferFrom",
      "outputs": [],
      "stateMutability": "nonpayable",
      "type": "function"
    },
    {
      "inputs": [
        {
          "internalType": "address",
          "name": "from",
          "type": "address"
        },
        {
          "internalType": "address",
          "name": "to",
          "type": "address"
        },
        {
          "internalType": "uint256",
          "name": "tokenId",
          "type": "uint256"
        },
        {
          "internalType": "bytes",
          "name": "_data",
          "type": "bytes"
        }
      ],
      "name": "safeTransferFrom",
      "outputs": [],
      "stateMutability": "nonpayable",
      "type": "function"
    },
    {
      "inputs": [
        {
          "internalType": "address",
          "name": "operator",
          "type": "address"
        },
        {
          "internalType": "bool",
          "name": "approved",
          "type": "bool"
        }
      ],
      "name": "setApprovalForAll",
      "outputs": [],
      "stateMutability": "nonpayable",
      "type": "function"
    },
    {
      "inputs": [
        {
          "internalType": "bytes4",
          "name": "interfaceId",
          "type": "bytes4"
        }
      ],
      "name": "supportsInterface",
      "outputs": [
        {
          "internalType": "bool",
          "name": "",
          "type": "bool"
        }
      ],
      "stateMutability": "view",
      "type": "function",
      "constant": true
    },
    {
      "inputs": [],
      "name": "symbol",
      "outputs": [
        {
          "internalType": "string",
          "name": "",
          "type": "string"
        }
      ],
      "stateMutability": "view",
      "type": "function",
      "constant": true
    },
    {
      "inputs": [
        {
          "internalType": "uint256",
          "name": "index",
          "type": "uint256"
        }
      ],
      "name": "tokenByIndex",
      "outputs": [
        {
          "internalType": "uint256",
          "name": "",
          "type": "uint256"
        }
      ],
      "stateMutability": "view",
      "type": "function",
      "constant": true
    },
    {
      "inputs": [
        {
          "internalType": "address",
          "name": "owner",
          "type": "address"
        },
        {
          "internalType": "uint256",
          "name": "index",
          "type": "uint256"
        }
      ],
      "name": "tokenOfOwnerByIndex",
      "outputs": [
        {
          "internalType": "uint256",
          "name": "",
          "type": "uint256"
        }
      ],
      "stateMutability": "view",
      "type": "function",
      "constant": true
    },
    {
      "inputs": [
        {
          "internalType": "uint256",
          "name": "tokenId",
          "type": "uint256"
        }
      ],
      "name": "tokenURI",
      "outputs": [
        {
          "internalType": "string",
          "name": "",
          "type": "string"
        }
      ],
      "stateMutability": "view",
      "type": "function",
      "constant": true
    },
    {
      "inputs": [],
      "name": "totalSupply",
      "outputs": [
        {
          "internalType": "uint256",
          "name": "",
          "type": "uint256"
        }
      ],
      "stateMutability": "view",
      "type": "function",
      "constant": true
    },
    {
      "inputs": [
        {
          "internalType": "address",
          "name": "from",
          "type": "address"
        },
        {
          "internalType": "address",
          "name": "to",
          "type": "address"
        },
        {
          "internalType": "uint256",
          "name": "tokenId",
          "type": "uint256"
        }
      ],
      "name": "transferFrom",
      "outputs": [],
      "stateMutability": "nonpayable",
      "type": "function"
    },
    {
      "inputs": [
        {
          "internalType": "uint256",
          "name": "userProvidedSeed",
          "type": "uint256"
        },
        {
          "internalType": "string",
          "name": "name",
          "type": "string"
        }
      ],
      "name": "requestNewRandomCharacter",
      "outputs": [
        {
          "internalType": "bytes32",
          "name": "",
          "type": "bytes32"
        }
      ],
      "stateMutability": "nonpayable",
      "type": "function"
    },
    {
      "inputs": [
        {
          "internalType": "uint256",
          "name": "tokenId",
          "type": "uint256"
        },
        {
          "internalType": "string",
          "name": "_tokenURI",
          "type": "string"
        }
      ],
      "name": "setTokenURI",
      "outputs": [],
      "stateMutability": "nonpayable",
      "type": "function"
    }
  ],
  "bytecode": "0x60c06040523480156200001157600080fd5b5060405162003a5e38038062003a5e833981810160405260608110156200003757600080fd5b8101908080519060200190929190805190602001909291908051906020019092919050505082826040518060400160405280601281526020017f476c61646961746f7243686172616374657200000000000000000000000000008152506040518060400160405280600481526020017f4744435400000000000000000000000000000000000000000000000000000000815250620000e26301ffc9a760e01b6200026f60201b60201c565b8160069080519060200190620000fa92919062000378565b5080600790805190602001906200011392919062000378565b506200012c6380ac58cd60e01b6200026f60201b60201c565b62000144635b5e139f60e01b6200026f60201b60201c565b6200015c63780e9d6360e01b6200026f60201b60201c565b50508173ffffffffffffffffffffffffffffffffffffffff1660a08173ffffffffffffffffffffffffffffffffffffffff1660601b815250508073ffffffffffffffffffffffffffffffffffffffff1660808173ffffffffffffffffffffffffffffffffffffffff1660601b81525050505082600c60006101000a81548173ffffffffffffffffffffffffffffffffffffffff021916908373ffffffffffffffffffffffffffffffffffffffff16021790555080600b8190555081600f60006101000a81548173ffffffffffffffffffffffffffffffffffffffff021916908373ffffffffffffffffffffffffffffffffffffffff16021790555067016345785d8a0000600d819055505050506200041e565b63ffffffff60e01b817bffffffffffffffffffffffffffffffffffffffffffffffffffffffff191614156200030c576040517f08c379a000000000000000000000000000000000000000000000000000000000815260040180806020018281038252601c8152602001807f4552433136353a20696e76616c696420696e746572666163652069640000000081525060200191505060405180910390fd5b6001600080837bffffffffffffffffffffffffffffffffffffffffffffffffffffffff19167bffffffffffffffffffffffffffffffffffffffffffffffffffffffff1916815260200190815260200160002060006101000a81548160ff02191690831515021790555050565b828054600181600116156101000203166002900490600052602060002090601f016020900481019282601f10620003bb57805160ff1916838001178555620003ec565b82800160010185558215620003ec579182015b82811115620003eb578251825591602001919060010190620003ce565b5b509050620003fb9190620003ff565b5090565b5b808211156200041a57600081600090555060010162000400565b5090565b60805160601c60a05160601c6136116200044d600039806113855280611ac7525080611a8b52506136116000f3fe608060405234801561001057600080fd5b50600436106101585760003560e01c80634810bc59116100c357806394985ddd1161007c57806394985ddd1461088457806395d89b41146108bc578063a22cb4651461093f578063b88d4fde1461098f578063c87b56dd14610a94578063e985e9c514610b3b57610158565b80634810bc59146106355780634f6ccce7146106f157806361728f39146107335780636352211e146107515780636c0360eb146107a957806370a082311461082c57610158565b8063162094c411610115578063162094c4146103f657806318160ddd146104bb57806323b872dd146104d95780632f745c591461054757806342619f66146105a957806342842e0e146105c757610158565b806301ffc9a71461015d57806306396dbe146101c057806306fdde031461029957806307ed17e31461031c578063081812fc14610350578063095ea7b3146103a8575b600080fd5b6101a86004803603602081101561017357600080fd5b8101908080357bffffffffffffffffffffffffffffffffffffffffffffffffffffffff19169060200190929190505050610bb5565b60405180821515815260200191505060405180910390f35b610283600480360360408110156101d657600080fd5b8101908080359060200190929190803590602001906401000000008111156101fd57600080fd5b82018360208201111561020f57600080fd5b8035906020019184600183028401116401000000008311171561023157600080fd5b91908080601f016020809104026020016040519081016040528093929190818152602001838380828437600081840152601f19601f820116905080830192505050505050509192919290505050610c1c565b6040518082815260200191505060405180910390f35b6102a1610cb4565b6040518080602001828103825283818151815260200191508051906020019080838360005b838110156102e15780820151818401526020810190506102c6565b50505050905090810190601f16801561030e5780820380516001836020036101000a031916815260200191505b509250505060405180910390f35b610324610d56565b604051808273ffffffffffffffffffffffffffffffffffffffff16815260200191505060405180910390f35b61037c6004803603602081101561036657600080fd5b8101908080359060200190929190505050610d7c565b604051808273ffffffffffffffffffffffffffffffffffffffff16815260200191505060405180910390f35b6103f4600480360360408110156103be57600080fd5b81019080803573ffffffffffffffffffffffffffffffffffffffff16906020019092919080359060200190929190505050610e17565b005b6104b96004803603604081101561040c57600080fd5b81019080803590602001909291908035906020019064010000000081111561043357600080fd5b82018360208201111561044557600080fd5b8035906020019184600183028401116401000000008311171561046757600080fd5b91908080601f016020809104026020016040519081016040528093929190818152602001838380828437600081840152601f19601f820116905080830192505050505050509192919290505050610f5b565b005b6104c3610fcf565b6040518082815260200191505060405180910390f35b610545600480360360608110156104ef57600080fd5b81019080803573ffffffffffffffffffffffffffffffffffffffff169060200190929190803573ffffffffffffffffffffffffffffffffffffffff16906020019092919080359060200190929190505050610fe0565b005b6105936004803603604081101561055d57600080fd5b81019080803573ffffffffffffffffffffffffffffffffffffffff16906020019092919080359060200190929190505050611056565b6040518082815260200191505060405180910390f35b6105b16110b1565b6040518082815260200191505060405180910390f35b610633600480360360608110156105dd57600080fd5b81019080803573ffffffffffffffffffffffffffffffffffffffff169060200190929190803573ffffffffffffffffffffffffffffffffffffffff169060200190929190803590602001909291905050506110b7565b005b6106616004803603602081101561064b57600080fd5b81019080803590602001909291905050506110d7565b6040518085815260200184815260200183815260200180602001828103825283818151815260200191508051906020019080838360005b838110156106b3578082015181840152602081019050610698565b50505050905090810190601f1680156106e05780820380516001836020036101000a031916815260200191505b509550505050505060405180910390f35b61071d6004803603602081101561070757600080fd5b81019080803590602001909291905050506111ac565b6040518082815260200191505060405180910390f35b61073b6111cf565b6040518082815260200191505060405180910390f35b61077d6004803603602081101561076757600080fd5b81019080803590602001909291905050506111d5565b604051808273ffffffffffffffffffffffffffffffffffffffff16815260200191505060405180910390f35b6107b161120c565b6040518080602001828103825283818151815260200191508051906020019080838360005b838110156107f15780820151818401526020810190506107d6565b50505050905090810190601f16801561081e5780820380516001836020036101000a031916815260200191505b509250505060405180910390f35b61086e6004803603602081101561084257600080fd5b81019080803573ffffffffffffffffffffffffffffffffffffffff1690602001909291905050506112ae565b6040518082815260200191505060405180910390f35b6108ba6004803603604081101561089a57600080fd5b810190808035906020019092919080359060200190929190505050611383565b005b6108c4611452565b6040518080602001828103825283818151815260200191508051906020019080838360005b838110156109045780820151818401526020810190506108e9565b50505050905090810190601f1680156109315780820380516001836020036101000a031916815260200191505b509250505060405180910390f35b61098d6004803603604081101561095557600080fd5b81019080803573ffffffffffffffffffffffffffffffffffffffff1690602001909291908035151590602001909291905050506114f4565b005b610a92600480360360808110156109a557600080fd5b81019080803573ffffffffffffffffffffffffffffffffffffffff169060200190929190803573ffffffffffffffffffffffffffffffffffffffff1690602001909291908035906020019092919080359060200190640100000000811115610a0c57600080fd5b820183602082011115610a1e57600080fd5b80359060200191846001830284011164010000000083111715610a4057600080fd5b91908080601f016020809104026020016040519081016040528093929190818152602001838380828437600081840152601f19601f8201169050808301925050505050505091929192905050506116aa565b005b610ac060048036036020811015610aaa57600080fd5b8101908080359060200190929190505050611722565b6040518080602001828103825283818151815260200191508051906020019080838360005b83811015610b00578082015181840152602081019050610ae5565b50505050905090810190601f168015610b2d5780820380516001836020036101000a031916815260200191505b509250505060405180910390f35b610b9d60048036036040811015610b5157600080fd5b81019080803573ffffffffffffffffffffffffffffffffffffffff169060200190929190803573ffffffffffffffffffffffffffffffffffffffff1690602001909291905050506119f3565b60405180821515815260200191505060405180910390f35b6000806000837bffffffffffffffffffffffffffffffffffffffffffffffffffffffff19167bffffffffffffffffffffffffffffffffffffffffffffffffffffffff1916815260200190815260200160002060009054906101000a900460ff169050919050565b600080610c2e600b54600d5486611a87565b905082601160008381526020019081526020016000209080519060200190610c579291906132c5565b50336012600083815260200190815260200160002060006101000a81548173ffffffffffffffffffffffffffffffffffffffff021916908373ffffffffffffffffffffffffffffffffffffffff1602179055508091505092915050565b606060068054600181600116156101000203166002900480601f016020809104026020016040519081016040528092919081815260200182805460018160011615610100020316600290048015610d4c5780601f10610d2157610100808354040283529160200191610d4c565b820191906000526020600020905b815481529060010190602001808311610d2f57829003601f168201915b5050505050905090565b600f60009054906101000a900473ffffffffffffffffffffffffffffffffffffffff1681565b6000610d8782611c7f565b610ddc576040517f08c379a000000000000000000000000000000000000000000000000000000000815260040180806020018281038252602c8152602001806134da602c913960400191505060405180910390fd5b6004600083815260200190815260200160002060009054906101000a900473ffffffffffffffffffffffffffffffffffffffff169050919050565b6000610e22826111d5565b90508073ffffffffffffffffffffffffffffffffffffffff168373ffffffffffffffffffffffffffffffffffffffff161415610ea9576040517f08c379a000000000000000000000000000000000000000000000000000000000815260040180806020018281038252602181526020018061358a6021913960400191505060405180910390fd5b8073ffffffffffffffffffffffffffffffffffffffff16610ec8611c9c565b73ffffffffffffffffffffffffffffffffffffffff161480610ef75750610ef681610ef1611c9c565b6119f3565b5b610f4c576040517f08c379a000000000000000000000000000000000000000000000000000000000815260040180806020018281038252603881526020018061342d6038913960400191505060405180910390fd5b610f568383611ca4565b505050565b610f6c610f66611c9c565b83611d5d565b610fc1576040517f08c379a00000000000000000000000000000000000000000000000000000000081526004018080602001828103825260318152602001806135ab6031913960400191505060405180910390fd5b610fcb8282611e51565b5050565b6000610fdb6002611edb565b905090565b610ff1610feb611c9c565b82611d5d565b611046576040517f08c379a00000000000000000000000000000000000000000000000000000000081526004018080602001828103825260318152602001806135ab6031913960400191505060405180910390fd5b611051838383611ef0565b505050565b60006110a982600160008673ffffffffffffffffffffffffffffffffffffffff1673ffffffffffffffffffffffffffffffffffffffff16815260200190815260200160002061213390919063ffffffff16565b905092915050565b600e5481565b6110d2838383604051806020016040528060008152506116aa565b505050565b601081815481106110e457fe5b9060005260206000209060040201600091509050806000015490806001015490806002015490806003018054600181600116156101000203166002900480601f0160208091040260200160405190810160405280929190818152602001828054600181600116156101000203166002900480156111a25780601f10611177576101008083540402835291602001916111a2565b820191906000526020600020905b81548152906001019060200180831161118557829003601f168201915b5050505050905084565b6000806111c383600261214d90919063ffffffff16565b50905080915050919050565b600b5481565b60006112058260405180606001604052806029815260200161348f6029913960026121799092919063ffffffff16565b9050919050565b606060098054600181600116156101000203166002900480601f0160208091040260200160405190810160405280929190818152602001828054600181600116156101000203166002900480156112a45780601f10611279576101008083540402835291602001916112a4565b820191906000526020600020905b81548152906001019060200180831161128757829003601f168201915b5050505050905090565b60008073ffffffffffffffffffffffffffffffffffffffff168273ffffffffffffffffffffffffffffffffffffffff161415611335576040517f08c379a000000000000000000000000000000000000000000000000000000000815260040180806020018281038252602a815260200180613465602a913960400191505060405180910390fd5b61137c600160008473ffffffffffffffffffffffffffffffffffffffff1673ffffffffffffffffffffffffffffffffffffffff168152602001908152602001600020612198565b9050919050565b7f000000000000000000000000000000000000000000000000000000000000000073ffffffffffffffffffffffffffffffffffffffff163373ffffffffffffffffffffffffffffffffffffffff1614611444576040517f08c379a000000000000000000000000000000000000000000000000000000000815260040180806020018281038252601f8152602001807f4f6e6c7920565246436f6f7264696e61746f722063616e2066756c66696c6c0081525060200191505060405180910390fd5b61144e82826121ad565b5050565b606060078054600181600116156101000203166002900480601f0160208091040260200160405190810160405280929190818152602001828054600181600116156101000203166002900480156114ea5780601f106114bf576101008083540402835291602001916114ea565b820191906000526020600020905b8154815290600101906020018083116114cd57829003601f168201915b5050505050905090565b6114fc611c9c565b73ffffffffffffffffffffffffffffffffffffffff168273ffffffffffffffffffffffffffffffffffffffff16141561159d576040517f08c379a00000000000000000000000000000000000000000000000000000000081526004018080602001828103825260198152602001807f4552433732313a20617070726f766520746f2063616c6c65720000000000000081525060200191505060405180910390fd5b80600560006115aa611c9c565b73ffffffffffffffffffffffffffffffffffffffff1673ffffffffffffffffffffffffffffffffffffffff16815260200190815260200160002060008473ffffffffffffffffffffffffffffffffffffffff1673ffffffffffffffffffffffffffffffffffffffff16815260200190815260200160002060006101000a81548160ff0219169083151502179055508173ffffffffffffffffffffffffffffffffffffffff16611657611c9c565b73ffffffffffffffffffffffffffffffffffffffff167f17307eab39ab6107e8899845ad3d59bd9653f200f220920489ca2b5937696c318360405180821515815260200191505060405180910390a35050565b6116bb6116b5611c9c565b83611d5d565b611710576040517f08c379a00000000000000000000000000000000000000000000000000000000081526004018080602001828103825260318152602001806135ab6031913960400191505060405180910390fd5b61171c84848484612375565b50505050565b606061172d82611c7f565b611782576040517f08c379a000000000000000000000000000000000000000000000000000000000815260040180806020018281038252602f81526020018061355b602f913960400191505060405180910390fd5b6060600860008481526020019081526020016000208054600181600116156101000203166002900480601f01602080910402602001604051908101604052809291908181526020018280546001816001161561010002031660029004801561182b5780601f106118005761010080835404028352916020019161182b565b820191906000526020600020905b81548152906001019060200180831161180e57829003601f168201915b50505050509050606061183c61120c565b90506000815114156118525781925050506119ee565b6000825111156119235780826040516020018083805190602001908083835b602083106118945780518252602082019150602081019050602083039250611871565b6001836020036101000a03801982511681845116808217855250505050505090500182805190602001908083835b602083106118e557805182526020820191506020810190506020830392506118c2565b6001836020036101000a03801982511681845116808217855250505050505090500192505050604051602081830303815290604052925050506119ee565b8061192d856123e7565b6040516020018083805190602001908083835b602083106119635780518252602082019150602081019050602083039250611940565b6001836020036101000a03801982511681845116808217855250505050505090500182805190602001908083835b602083106119b45780518252602082019150602081019050602083039250611991565b6001836020036101000a03801982511681845116808217855250505050505090500192505050604051602081830303815290604052925050505b919050565b6000600560008473ffffffffffffffffffffffffffffffffffffffff1673ffffffffffffffffffffffffffffffffffffffff16815260200190815260200160002060008373ffffffffffffffffffffffffffffffffffffffff1673ffffffffffffffffffffffffffffffffffffffff16815260200190815260200160002060009054906101000a900460ff16905092915050565b60007f000000000000000000000000000000000000000000000000000000000000000073ffffffffffffffffffffffffffffffffffffffff16634000aea07f000000000000000000000000000000000000000000000000000000000000000085878660405160200180838152602001828152602001925050506040516020818303038152906040526040518463ffffffff1660e01b8152600401808473ffffffffffffffffffffffffffffffffffffffff16815260200183815260200180602001828103825283818151815260200191508051906020019080838360005b83811015611b80578082015181840152602081019050611b65565b50505050905090810190601f168015611bad5780820380516001836020036101000a031916815260200191505b50945050505050602060405180830381600087803b158015611bce57600080fd5b505af1158015611be2573d6000803e3d6000fd5b505050506040513d6020811015611bf857600080fd5b8101908080519060200190929190505050506000611c2b858430600a60008a81526020019081526020016000205461252e565b9050611c546001600a60008881526020019081526020016000205461259290919063ffffffff16565b600a600087815260200190815260200160002081905550611c75858261261a565b9150509392505050565b6000611c9582600261265390919063ffffffff16565b9050919050565b600033905090565b816004600083815260200190815260200160002060006101000a81548173ffffffffffffffffffffffffffffffffffffffff021916908373ffffffffffffffffffffffffffffffffffffffff160217905550808273ffffffffffffffffffffffffffffffffffffffff16611d17836111d5565b73ffffffffffffffffffffffffffffffffffffffff167f8c5be1e5ebec7d5bd14f71427d1e84f3dd0314c0f7b2291e5b200ac8c7c3b92560405160405180910390a45050565b6000611d6882611c7f565b611dbd576040517f08c379a000000000000000000000000000000000000000000000000000000000815260040180806020018281038252602c815260200180613401602c913960400191505060405180910390fd5b6000611dc8836111d5565b90508073ffffffffffffffffffffffffffffffffffffffff168473ffffffffffffffffffffffffffffffffffffffff161480611e3757508373ffffffffffffffffffffffffffffffffffffffff16611e1f84610d7c565b73ffffffffffffffffffffffffffffffffffffffff16145b80611e485750611e4781856119f3565b5b91505092915050565b611e5a82611c7f565b611eaf576040517f08c379a000000000000000000000000000000000000000000000000000000000815260040180806020018281038252602c815260200180613506602c913960400191505060405180910390fd5b80600860008481526020019081526020016000209080519060200190611ed69291906132c5565b505050565b6000611ee98260000161266d565b9050919050565b8273ffffffffffffffffffffffffffffffffffffffff16611f10826111d5565b73ffffffffffffffffffffffffffffffffffffffff1614611f7c576040517f08c379a00000000000000000000000000000000000000000000000000000000081526004018080602001828103825260298152602001806135326029913960400191505060405180910390fd5b600073ffffffffffffffffffffffffffffffffffffffff168273ffffffffffffffffffffffffffffffffffffffff161415612002576040517f08c379a00000000000000000000000000000000000000000000000000000000081526004018080602001828103825260248152602001806133b76024913960400191505060405180910390fd5b61200d83838361267e565b612018600082611ca4565b61206981600160008673ffffffffffffffffffffffffffffffffffffffff1673ffffffffffffffffffffffffffffffffffffffff16815260200190815260200160002061268390919063ffffffff16565b506120bb81600160008573ffffffffffffffffffffffffffffffffffffffff1673ffffffffffffffffffffffffffffffffffffffff16815260200190815260200160002061269d90919063ffffffff16565b506120d2818360026126b79092919063ffffffff16565b50808273ffffffffffffffffffffffffffffffffffffffff168473ffffffffffffffffffffffffffffffffffffffff167fddf252ad1be2c89b69c2b068fc378daa952ba7f163c4a11628f55a4df523b3ef60405160405180910390a4505050565b600061214283600001836126ec565b60001c905092915050565b600080600080612160866000018661276f565b915091508160001c8160001c9350935050509250929050565b600061218c846000018460001b84612808565b60001c90509392505050565b60006121a6826000016128fe565b9050919050565b600060108054905090506000606483816121c357fe5b069050600060646103e885816121d557fe5b06816121dd57fe5b0490506000612710620f424086816121f157fe5b06816121f957fe5b04905060106040518060800160405280858152602001848152602001838152602001601160008a81526020019081526020016000208054600181600116156101000203166002900480601f0160208091040260200160405190810160405280929190818152602001828054600181600116156101000203166002900480156122c25780601f10612297576101008083540402835291602001916122c2565b820191906000526020600020905b8154815290600101906020018083116122a557829003601f168201915b50505050508152509080600181540180825580915050600190039060005260206000209060040201600090919091909150600082015181600001556020820151816001015560408201518160020155606082015181600301908051906020019061232d9291906132c5565b50505061236d6012600088815260200190815260200160002060009054906101000a900473ffffffffffffffffffffffffffffffffffffffff168561290f565b505050505050565b612380848484611ef0565b61238c8484848461292d565b6123e1576040517f08c379a00000000000000000000000000000000000000000000000000000000081526004018080602001828103825260328152602001806133856032913960400191505060405180910390fd5b50505050565b6060600082141561242f576040518060400160405280600181526020017f30000000000000000000000000000000000000000000000000000000000000008152509050612529565b600082905060005b60008214612459578080600101915050600a828161245157fe5b049150612437565b60608167ffffffffffffffff8111801561247257600080fd5b506040519080825280601f01601f1916602001820160405280156124a55781602001600182028036833780820191505090505b50905060006001830390508593505b6000841461252157600a84816124c657fe5b0660300160f81b828280600190039350815181106124e057fe5b60200101907effffffffffffffffffffffffffffffffffffffffffffffffffffffffffffff1916908160001a905350600a848161251957fe5b0493506124b4565b819450505050505b919050565b600084848484604051602001808581526020018481526020018373ffffffffffffffffffffffffffffffffffffffff1681526020018281526020019450505050506040516020818303038152906040528051906020012060001c9050949350505050565b600080828401905083811015612610576040517f08c379a000000000000000000000000000000000000000000000000000000000815260040180806020018281038252601b8152602001807f536166654d6174683a206164646974696f6e206f766572666c6f77000000000081525060200191505060405180910390fd5b8091505092915050565b60008282604051602001808381526020018281526020019250505060405160208183030381529060405280519060200120905092915050565b6000612665836000018360001b612b46565b905092915050565b600081600001805490509050919050565b505050565b6000612695836000018360001b612b69565b905092915050565b60006126af836000018360001b612c51565b905092915050565b60006126e3846000018460001b8473ffffffffffffffffffffffffffffffffffffffff1660001b612cc1565b90509392505050565b60008183600001805490501161274d576040517f08c379a00000000000000000000000000000000000000000000000000000000081526004018080602001828103825260228152602001806133636022913960400191505060405180910390fd5b82600001828154811061275c57fe5b9060005260206000200154905092915050565b600080828460000180549050116127d1576040517f08c379a00000000000000000000000000000000000000000000000000000000081526004018080602001828103825260228152602001806134b86022913960400191505060405180910390fd5b60008460000184815481106127e257fe5b906000526020600020906002020190508060000154816001015492509250509250929050565b600080846001016000858152602001908152602001600020549050600081141583906128cf576040517f08c379a00000000000000000000000000000000000000000000000000000000081526004018080602001828103825283818151815260200191508051906020019080838360005b83811015612894578082015181840152602081019050612879565b50505050905090810190601f1680156128c15780820380516001836020036101000a031916815260200191505b509250505060405180910390fd5b508460000160018203815481106128e257fe5b9060005260206000209060020201600101549150509392505050565b600081600001805490509050919050565b612929828260405180602001604052806000815250612d9d565b5050565b600061294e8473ffffffffffffffffffffffffffffffffffffffff16612e0e565b61295b5760019050612b3e565b6060612ac563150b7a0260e01b612970611c9c565b888787604051602401808573ffffffffffffffffffffffffffffffffffffffff1681526020018473ffffffffffffffffffffffffffffffffffffffff16815260200183815260200180602001828103825283818151815260200191508051906020019080838360005b838110156129f45780820151818401526020810190506129d9565b50505050905090810190601f168015612a215780820380516001836020036101000a031916815260200191505b5095505050505050604051602081830303815290604052907bffffffffffffffffffffffffffffffffffffffffffffffffffffffff19166020820180517bffffffffffffffffffffffffffffffffffffffffffffffffffffffff8381831617835250505050604051806060016040528060328152602001613385603291398773ffffffffffffffffffffffffffffffffffffffff16612e219092919063ffffffff16565b90506000818060200190516020811015612ade57600080fd5b8101908080519060200190929190505050905063150b7a0260e01b7bffffffffffffffffffffffffffffffffffffffffffffffffffffffff1916817bffffffffffffffffffffffffffffffffffffffffffffffffffffffff191614925050505b949350505050565b600080836001016000848152602001908152602001600020541415905092915050565b60008083600101600084815260200190815260200160002054905060008114612c455760006001820390506000600186600001805490500390506000866000018281548110612bb457fe5b9060005260206000200154905080876000018481548110612bd157fe5b9060005260206000200181905550600183018760010160008381526020019081526020016000208190555086600001805480612c0957fe5b60019003818190600052602060002001600090559055866001016000878152602001908152602001600020600090556001945050505050612c4b565b60009150505b92915050565b6000612c5d8383612e39565b612cb6578260000182908060018154018082558091505060019003906000526020600020016000909190919091505582600001805490508360010160008481526020019081526020016000208190555060019050612cbb565b600090505b92915050565b6000808460010160008581526020019081526020016000205490506000811415612d6857846000016040518060400160405280868152602001858152509080600181540180825580915050600190039060005260206000209060020201600090919091909150600082015181600001556020820151816001015550508460000180549050856001016000868152602001908152602001600020819055506001915050612d96565b82856000016001830381548110612d7b57fe5b90600052602060002090600202016001018190555060009150505b9392505050565b612da78383612e5c565b612db4600084848461292d565b612e09576040517f08c379a00000000000000000000000000000000000000000000000000000000081526004018080602001828103825260328152602001806133856032913960400191505060405180910390fd5b505050565b600080823b905060008111915050919050565b6060612e308484600085613050565b90509392505050565b600080836001016000848152602001908152602001600020541415905092915050565b600073ffffffffffffffffffffffffffffffffffffffff168273ffffffffffffffffffffffffffffffffffffffff161415612eff576040517f08c379a00000000000000000000000000000000000000000000000000000000081526004018080602001828103825260208152602001807f4552433732313a206d696e7420746f20746865207a65726f206164647265737381525060200191505060405180910390fd5b612f0881611c7f565b15612f7b576040517f08c379a000000000000000000000000000000000000000000000000000000000815260040180806020018281038252601c8152602001807f4552433732313a20746f6b656e20616c7265616479206d696e7465640000000081525060200191505060405180910390fd5b612f876000838361267e565b612fd881600160008573ffffffffffffffffffffffffffffffffffffffff1673ffffffffffffffffffffffffffffffffffffffff16815260200190815260200160002061269d90919063ffffffff16565b50612fef818360026126b79092919063ffffffff16565b50808273ffffffffffffffffffffffffffffffffffffffff16600073ffffffffffffffffffffffffffffffffffffffff167fddf252ad1be2c89b69c2b068fc378daa952ba7f163c4a11628f55a4df523b3ef60405160405180910390a45050565b6060824710156130ab576040517f08c379a00000000000000000000000000000000000000000000000000000000081526004018080602001828103825260268152602001806133db6026913960400191505060405180910390fd5b6130b485612e0e565b613126576040517f08c379a000000000000000000000000000000000000000000000000000000000815260040180806020018281038252601d8152602001807f416464726573733a2063616c6c20746f206e6f6e2d636f6e747261637400000081525060200191505060405180910390fd5b600060608673ffffffffffffffffffffffffffffffffffffffff1685876040518082805190602001908083835b602083106131765780518252602082019150602081019050602083039250613153565b6001836020036101000a03801982511681845116808217855250505050505090500191505060006040518083038185875af1925050503d80600081146131d8576040519150601f19603f3d011682016040523d82523d6000602084013e6131dd565b606091505b50915091506131ed8282866131f9565b92505050949350505050565b60608315613209578290506132be565b60008351111561321c5782518084602001fd5b816040517f08c379a00000000000000000000000000000000000000000000000000000000081526004018080602001828103825283818151815260200191508051906020019080838360005b83811015613283578082015181840152602081019050613268565b50505050905090810190601f1680156132b05780820380516001836020036101000a031916815260200191505b509250505060405180910390fd5b9392505050565b828054600181600116156101000203166002900490600052602060002090601f016020900481019282601f1061330657805160ff1916838001178555613334565b82800160010185558215613334579182015b82811115613333578251825591602001919060010190613318565b5b5090506133419190613345565b5090565b5b8082111561335e576000816000905550600101613346565b509056fe456e756d657261626c655365743a20696e646578206f7574206f6620626f756e64734552433732313a207472616e7366657220746f206e6f6e20455243373231526563656976657220696d706c656d656e7465724552433732313a207472616e7366657220746f20746865207a65726f2061646472657373416464726573733a20696e73756666696369656e742062616c616e636520666f722063616c6c4552433732313a206f70657261746f7220717565727920666f72206e6f6e6578697374656e7420746f6b656e4552433732313a20617070726f76652063616c6c6572206973206e6f74206f776e6572206e6f7220617070726f76656420666f7220616c6c4552433732313a2062616c616e636520717565727920666f7220746865207a65726f20616464726573734552433732313a206f776e657220717565727920666f72206e6f6e6578697374656e7420746f6b656e456e756d657261626c654d61703a20696e646578206f7574206f6620626f756e64734552433732313a20617070726f76656420717565727920666f72206e6f6e6578697374656e7420746f6b656e4552433732314d657461646174613a2055524920736574206f66206e6f6e6578697374656e7420746f6b656e4552433732313a207472616e73666572206f6620746f6b656e2074686174206973206e6f74206f776e4552433732314d657461646174613a2055524920717565727920666f72206e6f6e6578697374656e7420746f6b656e4552433732313a20617070726f76616c20746f2063757272656e74206f776e65724552433732313a207472616e736665722063616c6c6572206973206e6f74206f776e6572206e6f7220617070726f766564a2646970667358221220ff690d3c30552d807ad3336af9ca62b1cb9ad4e3ca2983dedf99ef1222d0e11e64736f6c634300060c0033",
  "immutableReferences": {
    "273": [
      {
        "length": 32,
        "start": 6795
      }
    ],
    "275": [
      {
        "length": 32,
        "start": 4997
      },
      {
        "length": 32,
        "start": 6855
      }
    ]
  },
  "source": "// contracts/NFTSimple.sol\n// SPDX-License-Identifier: MIT\n\npragma solidity ^0.6.12;\n\n// const RINKEBY_VRF_COORDINATOR = '0xb3dCcb4Cf7a26f6cf6B120Cf5A73875B7BBc655B'\n// const RINKEBY_LINKTOKEN = '0x01BE23585060835E02B77ef475b0Cc51aA1e0709'\n// const RINKEBY_KEYHASH = '0x2ed0feb3e7fd2022120aa84fab1945545a9f2ffc9076fd6156fa96eaff4c1311'\n\nimport \"@openzeppelin/contracts/token/ERC721/ERC721.sol\";\nimport \"@chainlink/contracts/src/v0.6/VRFConsumerBase.sol\";\n\ncontract GladiatorCharacter is ERC721, VRFConsumerBase {\n    bytes32 public keyHash;\n    address VRFCoordinator;\n    // bytes32 internal keyHash;\n    uint256 internal fee;\n    uint256 public randomResult;\n    address public Linktoken;\n\n    struct Character {\n        uint256 strength;\n        uint256 speed;\n        uint256 stamina;\n        string name;\n    }\n\n    Character[] public characters;\n    // mappings will go here \n    mapping(bytes32 => string) requestToCharacterName;\n    mapping(bytes32 => address) requestToSender;\n    mapping(bytes32 => uint256) requestToTokenId;\n\n\n\n    constructor(address _VRFCoordinator, address _LinkToken, bytes32 _keyHash) public\n    VRFConsumerBase(_VRFCoordinator, _LinkToken) \n    ERC721(\"GladiatorCharacter\", \"GDCT\") {\n        VRFCoordinator = _VRFCoordinator;\n        keyHash = _keyHash;\n        Linktoken = _LinkToken;\n        fee = 0.1 * 10**18; // 0.1 LINK     \n    }\n\n    function requestNewRandomCharacter (uint256 userProvidedSeed, string memory name) public returns (bytes32) {\n        bytes32 requestId = requestRandomness(keyHash, fee, userProvidedSeed);\n        requestToCharacterName[requestId] = name;\n        requestToSender[requestId] = msg.sender;\n        return requestId;\n    }\n\n    function fulfillRandomness(bytes32 requestId, uint256 randomNumber)\n    internal override {\n        //define the NFT\n        uint256 newId = characters.length;\n        uint256 strength = (randomNumber % 100);\n        uint256 speed = ((randomNumber % 1000) / 100);\n        uint256 stamina = ((randomNumber % 1000000) / 10000);\n\n        characters.push(\n            Character(\n                strength,\n                speed,\n                stamina,\n                requestToCharacterName[requestId]\n            )\n        );\n        _safeMint(requestToSender[requestId], newId);\n\n    }\n\n    function setTokenURI(uint256 tokenId, string memory _tokenURI) public {\n        require(\n            _isApprovedOrOwner(_msgSender(), tokenId),\n            \"ERC721: transfer caller is not owner nor approved\"\n        );\n        _setTokenURI(tokenId, _tokenURI);\n\n    }\n\n}",
  "sourcePath": "/home/lion/Desktop/Chainlink/NFT/contracts/GladiatorCharacter.sol",
  "compiler": {
    "name": "solc",
    "version": "0.6.12+commit.27d51765.Emscripten.clang"
  },
  "schemaVersion": "3.3.4",
  "updatedAt": "2021-03-24T19:31:19.773Z",
  "networkType": "ethereum",
  "devdoc": {
    "kind": "dev",
    "methods": {
      "approve(address,uint256)": {
        "details": "See {IERC721-approve}."
      },
      "balanceOf(address)": {
        "details": "See {IERC721-balanceOf}."
      },
      "baseURI()": {
        "details": "Returns the base URI set via {_setBaseURI}. This will be automatically added as a prefix in {tokenURI} to each token's URI, or to the token ID if no specific URI is set for that token ID."
      },
      "getApproved(uint256)": {
        "details": "See {IERC721-getApproved}."
      },
      "isApprovedForAll(address,address)": {
        "details": "See {IERC721-isApprovedForAll}."
      },
      "name()": {
        "details": "See {IERC721Metadata-name}."
      },
      "ownerOf(uint256)": {
        "details": "See {IERC721-ownerOf}."
      },
      "safeTransferFrom(address,address,uint256)": {
        "details": "See {IERC721-safeTransferFrom}."
      },
      "safeTransferFrom(address,address,uint256,bytes)": {
        "details": "See {IERC721-safeTransferFrom}."
      },
      "setApprovalForAll(address,bool)": {
        "details": "See {IERC721-setApprovalForAll}."
      },
      "supportsInterface(bytes4)": {
        "details": "See {IERC165-supportsInterface}. Time complexity O(1), guaranteed to always use less than 30 000 gas."
      },
      "symbol()": {
        "details": "See {IERC721Metadata-symbol}."
      },
      "tokenByIndex(uint256)": {
        "details": "See {IERC721Enumerable-tokenByIndex}."
      },
      "tokenOfOwnerByIndex(address,uint256)": {
        "details": "See {IERC721Enumerable-tokenOfOwnerByIndex}."
      },
      "tokenURI(uint256)": {
        "details": "See {IERC721Metadata-tokenURI}."
      },
      "totalSupply()": {
        "details": "See {IERC721Enumerable-totalSupply}."
      },
      "transferFrom(address,address,uint256)": {
        "details": "See {IERC721-transferFrom}."
      }
    },
    "version": 1
  },
  "userdoc": {
    "kind": "user",
    "methods": {},
    "version": 1
  }
}